{
  "contractName": "Advertise",
  "abi": [
    {
      "inputs": [],
      "payable": false,
      "stateMutability": "nonpayable",
      "type": "constructor"
    },
    {
      "anonymous": false,
      "inputs": [
        {
          "indexed": true,
          "internalType": "address",
          "name": "_source",
          "type": "address"
        },
        {
          "indexed": true,
          "internalType": "uint256",
          "name": "_categoryId",
          "type": "uint256"
        }
      ],
      "name": "activityEvent",
      "type": "event"
    },
    {
      "constant": true,
      "inputs": [
        {
          "internalType": "uint256",
          "name": "",
          "type": "uint256"
        }
      ],
      "name": "advertisements",
      "outputs": [
        {
          "internalType": "uint256",
          "name": "id",
          "type": "uint256"
        },
        {
          "internalType": "string",
          "name": "source",
          "type": "string"
        },
        {
          "internalType": "string",
          "name": "content",
          "type": "string"
        },
        {
          "internalType": "uint256",
          "name": "categoryId",
          "type": "uint256"
        }
      ],
      "payable": false,
      "stateMutability": "view",
      "type": "function"
    },
    {
      "constant": true,
      "inputs": [],
      "name": "advertisementsCount",
      "outputs": [
        {
          "internalType": "uint256",
          "name": "",
          "type": "uint256"
        }
      ],
      "payable": false,
      "stateMutability": "view",
      "type": "function"
    },
    {
      "constant": true,
      "inputs": [
        {
          "internalType": "uint256",
          "name": "",
          "type": "uint256"
        }
      ],
      "name": "categories",
      "outputs": [
        {
          "internalType": "uint256",
          "name": "id",
          "type": "uint256"
        },
        {
          "internalType": "string",
          "name": "name",
          "type": "string"
        },
        {
          "internalType": "uint256",
          "name": "totalAds",
          "type": "uint256"
        }
      ],
      "payable": false,
      "stateMutability": "view",
      "type": "function"
    },
    {
      "constant": true,
      "inputs": [],
      "name": "categoriesCount",
      "outputs": [
        {
          "internalType": "uint256",
          "name": "",
          "type": "uint256"
        }
      ],
      "payable": false,
      "stateMutability": "view",
      "type": "function"
    },
    {
      "constant": true,
      "inputs": [
        {
          "internalType": "address",
          "name": "",
          "type": "address"
        },
        {
          "internalType": "uint256",
          "name": "",
          "type": "uint256"
        }
      ],
      "name": "categoryActivities",
      "outputs": [
        {
          "internalType": "uint256",
          "name": "categoryId",
          "type": "uint256"
        },
        {
          "internalType": "uint256",
          "name": "viewCount",
          "type": "uint256"
        },
        {
          "internalType": "bool",
          "name": "blockAds",
          "type": "bool"
        }
      ],
      "payable": false,
      "stateMutability": "view",
      "type": "function"
    },
    {
      "constant": true,
      "inputs": [
        {
          "internalType": "uint256",
          "name": "",
          "type": "uint256"
        },
        {
          "internalType": "uint256",
          "name": "",
          "type": "uint256"
        }
      ],
      "name": "categoryAdvertisementIds",
      "outputs": [
        {
          "internalType": "uint256",
          "name": "",
          "type": "uint256"
        }
      ],
      "payable": false,
      "stateMutability": "view",
      "type": "function"
    },
    {
      "constant": false,
      "inputs": [
        {
          "internalType": "string",
          "name": "_source",
          "type": "string"
        },
        {
          "internalType": "string",
          "name": "_content",
          "type": "string"
        },
        {
          "internalType": "uint256",
          "name": "_categoryId",
          "type": "uint256"
        }
      ],
      "name": "addAdvertisement",
      "outputs": [],
      "payable": false,
      "stateMutability": "nonpayable",
      "type": "function"
    },
    {
      "constant": false,
      "inputs": [
        {
          "internalType": "uint256",
          "name": "_categoryId",
          "type": "uint256"
        }
      ],
      "name": "viewCategory",
      "outputs": [],
      "payable": false,
      "stateMutability": "nonpayable",
      "type": "function"
    },
    {
      "constant": true,
      "inputs": [
        {
          "internalType": "uint256",
          "name": "_len",
          "type": "uint256"
        }
      ],
      "name": "getAds",
      "outputs": [
        {
          "components": [
            {
              "internalType": "uint256",
              "name": "id",
              "type": "uint256"
            },
            {
              "internalType": "string",
              "name": "source",
              "type": "string"
            },
            {
              "internalType": "string",
              "name": "content",
              "type": "string"
            },
            {
              "internalType": "uint256",
              "name": "categoryId",
              "type": "uint256"
            }
          ],
          "internalType": "struct Advertise.Advertisement[]",
          "name": "",
          "type": "tuple[]"
        }
      ],
      "payable": false,
      "stateMutability": "view",
      "type": "function"
    }
  ],
  "bytecode": "0x60806040523480156200001157600080fd5b50620000586040518060400160405280600681526020017f53706f7274730000000000000000000000000000000000000000000000000000815250620002d460201b60201c565b6200009e6040518060400160405280600781526020017f47726f6365727900000000000000000000000000000000000000000000000000815250620002d460201b60201c565b620000e46040518060400160405280600681526020017f4d6f766965730000000000000000000000000000000000000000000000000000815250620002d460201b60201c565b6200012a6040518060400160405280600a81526020017f546563686e6f6c6f677900000000000000000000000000000000000000000000815250620002d460201b60201c565b620001706040518060400160405280600481526020017f4361727300000000000000000000000000000000000000000000000000000000815250620002d460201b60201c565b620001b66040518060400160405280600681526020017f52657461696c0000000000000000000000000000000000000000000000000000815250620002d460201b60201c565b620001fc6040518060400160405280600781526020017f46696e616e636500000000000000000000000000000000000000000000000000815250620002d460201b60201c565b620002426040518060400160405280600681526020017f54726176656c0000000000000000000000000000000000000000000000000000815250620002d460201b60201c565b620002886040518060400160405280600481526020017f466f6f6400000000000000000000000000000000000000000000000000000000815250620002d460201b60201c565b620002ce6040518060400160405280600581526020017f4d75736963000000000000000000000000000000000000000000000000000000815250620002d460201b60201c565b62000401565b6006600081548092919060010191905055506040518060600160405280600654815260200182815260200160008152506003600060065481526020019081526020016000206000820151816000015560208201518160010190805190602001906200034192919062000352565b506040820151816002015590505050565b828054600181600116156101000203166002900490600052602060002090601f016020900481019282601f106200039557805160ff1916838001178555620003c6565b82800160010185558215620003c6579182015b82811115620003c5578251825591602001919060010190620003a8565b5b509050620003d59190620003d9565b5090565b620003fe91905b80821115620003fa576000816000905550600101620003e0565b5090565b90565b61160180620004116000396000f3fe608060405234801561001057600080fd5b50600436106100925760003560e01c8063940f3fee11610066578063940f3fee14610133578063ac1e62dc1461014f578063b7ccc4661461017f578063bcea610e1461019d578063c6cdbe5e146101d057610092565b8062f10c381461009757806334a54260146100c95780633552f711146100f95780634f5f44ec14610117575b600080fd5b6100b160048036036100ac9190810190610fd9565b610202565b6040516100c0939291906113c4565b60405180910390f35b6100e360048036036100de9190810190611094565b610253565b6040516100f091906112f6565b60405180910390f35b6101016104f9565b60405161010e9190611318565b60405180910390f35b610131600480360361012c9190810190611094565b6104ff565b005b61014d60048036036101489190810190611015565b61060e565b005b610169600480360361016491908101906110bd565b610713565b6040516101769190611318565b60405180910390f35b610187610741565b6040516101949190611318565b60405180910390f35b6101b760048036036101b29190810190611094565b610747565b6040516101c79493929190611333565b60405180910390f35b6101ea60048036036101e59190810190611094565b6108a7565b6040516101f993929190611386565b60405180910390f35b6000602052816000526040600020818154811061021b57fe5b9060005260206000209060030201600091509150508060000154908060010154908060020160009054906101000a900460ff16905083565b6060806102608333610969565b90506060815160405190808252806020026020018201604052801561029f57816020015b61028c610e66565b8152602001906001900390816102845790505b50905060008090505b82518110156104ee576060600460008584815181106102c357fe5b6020026020010151815260200190815260200160002080548060200260200160405190810160405280929190818152602001828054801561032357602002820191906000526020600020905b81548152602001906001019080831161030f575b50505050509050610332610e8e565b6002600083610342855133610ab4565b8151811061034c57fe5b6020026020010151815260200190815260200160002060405180608001604052908160008201548152602001600182018054600181600116156101000203166002900480601f0160208091040260200160405190810160405280929190818152602001828054600181600116156101000203166002900480156104105780601f106103e557610100808354040283529160200191610410565b820191906000526020600020905b8154815290600101906020018083116103f357829003601f168201915b50505050508152602001600282018054600181600116156101000203166002900480601f0160208091040260200160405190810160405280929190818152602001828054600181600116156101000203166002900480156104b25780601f10610487576101008083540402835291602001916104b2565b820191906000526020600020905b81548152906001019060200180831161049557829003601f168201915b505050505081526020016003820154815250509050808484815181106104d457fe5b6020026020010181905250505080806001019150506102a8565b508092505050919050565b60055481565b600160003373ffffffffffffffffffffffffffffffffffffffff1673ffffffffffffffffffffffffffffffffffffffff16815260200190815260200160002060009054906101000a900460ff1661055a5761055933610b01565b5b6000803373ffffffffffffffffffffffffffffffffffffffff1673ffffffffffffffffffffffffffffffffffffffff16815260200190815260200160002060018203815481106105a657fe5b906000526020600020906003020160010160008154809291906001019190505550803373ffffffffffffffffffffffffffffffffffffffff167f7fab93691b5a5283d2b77c3b107dc835c657d31a9c2f05572930d73c2739950d60405160405180910390a350565b600560008154809291906001019190505550604051806080016040528060055481526020018481526020018381526020018281525060026000600554815260200190815260200160002060008201518160000155602082015181600101908051906020019061067e929190610eb6565b50604082015181600201908051906020019061069b929190610eb6565b50606082015181600301559050506003600082815260200190815260200160002060020160008154809291906001019190505550600460008281526020019081526020016000206005549080600181540180825580915050906001820390600052602060002001600090919290919091505550505050565b6004602052816000526040600020818154811061072c57fe5b90600052602060002001600091509150505481565b60065481565b6002602052806000526040600020600091509050806000015490806001018054600181600116156101000203166002900480601f0160208091040260200160405190810160405280929190818152602001828054600181600116156101000203166002900480156107f95780601f106107ce576101008083540402835291602001916107f9565b820191906000526020600020905b8154815290600101906020018083116107dc57829003601f168201915b505050505090806002018054600181600116156101000203166002900480601f0160208091040260200160405190810160405280929190818152602001828054600181600116156101000203166002900480156108975780601f1061086c57610100808354040283529160200191610897565b820191906000526020600020905b81548152906001019060200180831161087a57829003601f168201915b5050505050908060030154905084565b6003602052806000526040600020600091509050806000015490806001018054600181600116156101000203166002900480601f0160208091040260200160405190810160405280929190818152602001828054600181600116156101000203166002900480156109595780601f1061092e57610100808354040283529160200191610959565b820191906000526020600020905b81548152906001019060200180831161093c57829003601f168201915b5050505050908060020154905083565b60608061097583610c3b565b9050600080905060008090505b6006548110801561099257508582105b156109df576000600360008584815181106109a957fe5b602002602001015181526020019081526020016000206002015411156109d25781806001019250505b8080600101915050610982565b50606081604051908082528060200260200182016040528015610a115781602001602082028038833980820191505090505b509050600080905060008090505b8782108015610a2f575060065481105b15610aa657600060036000878481518110610a4657fe5b60200260200101518152602001908152602001600020600201541115610a9957848181518110610a7257fe5b6020026020010151838380600101945081518110610a8c57fe5b6020026020010181815250505b8080600101915050610a1f565b508194505050505092915050565b600080600a9050600084428584604051602001610ad3939291906112b9565b6040516020818303038152906040528051906020012060001c81610af357fe5b069050809250505092915050565b60008090505b600654811015610be0576000808373ffffffffffffffffffffffffffffffffffffffff1673ffffffffffffffffffffffffffffffffffffffff1681526020019081526020016000206040518060600160405280600184018152602001600081526020016000151581525090806001815401808255809150509060018203906000526020600020906003020160009091929091909150600082015181600001556020820151816001015560408201518160020160006101000a81548160ff0219169083151502179055505050508080600101915050610b07565b5060018060008373ffffffffffffffffffffffffffffffffffffffff1673ffffffffffffffffffffffffffffffffffffffff16815260200190815260200160002060006101000a81548160ff02191690831515021790555050565b606080600654604051908082528060200260200182016040528015610c6f5781602001602082028038833980820191505090505b50905060008090505b600654811015610cab5760018101828281518110610c9257fe5b6020026020010181815250508080600101915050610c78565b5060606000808573ffffffffffffffffffffffffffffffffffffffff1673ffffffffffffffffffffffffffffffffffffffff168152602001908152602001600020805480602002602001604051908101604052809291908181526020016000905b82821015610d6d578382906000526020600020906003020160405180606001604052908160008201548152602001600182015481526020016002820160009054906101000a900460ff16151515158152505081526020019060010190610d0c565b5050505090506000825190506000600190505b81811015610e5a576000838281518110610d9657fe5b60200260200101516020015190506000858381518110610db257fe5b6020026020010151905060006001840390505b60008112158015610dec575082868281518110610dde57fe5b602002602001015160200151105b15610e2e57868181518110610dfd57fe5b6020026020010151876001830181518110610e1457fe5b602002602001018181525050808060019003915050610dc5565b81876001830181518110610e3e57fe5b6020026020010181815250505050508080600101915050610d80565b50829350505050919050565b6040518060800160405280600081526020016060815260200160608152602001600081525090565b6040518060800160405280600081526020016060815260200160608152602001600081525090565b828054600181600116156101000203166002900490600052602060002090601f016020900481019282601f10610ef757805160ff1916838001178555610f25565b82800160010185558215610f25579182015b82811115610f24578251825591602001919060010190610f09565b5b509050610f329190610f36565b5090565b610f5891905b80821115610f54576000816000905550600101610f3c565b5090565b90565b600081359050610f6a81611590565b92915050565b600082601f830112610f8157600080fd5b8135610f94610f8f82611428565b6113fb565b91508082526020830160208301858383011115610fb057600080fd5b610fbb838284611502565b50505092915050565b600081359050610fd3816115a7565b92915050565b60008060408385031215610fec57600080fd5b6000610ffa85828601610f5b565b925050602061100b85828601610fc4565b9150509250929050565b60008060006060848603121561102a57600080fd5b600084013567ffffffffffffffff81111561104457600080fd5b61105086828701610f70565b935050602084013567ffffffffffffffff81111561106d57600080fd5b61107986828701610f70565b925050604061108a86828701610fc4565b9150509250925092565b6000602082840312156110a657600080fd5b60006110b484828501610fc4565b91505092915050565b600080604083850312156110d057600080fd5b60006110de85828601610fc4565b92505060206110ef85828601610fc4565b9150509250929050565b6000611105838361121a565b905092915050565b61111e611119826114ba565b611544565b82525050565b600061112f82611464565b6111398185611487565b93508360208202850161114b85611454565b8060005b85811015611187578484038952815161116885826110f9565b94506111738361147a565b925060208a0199505060018101905061114f565b50829750879550505050505092915050565b6111a2816114cc565b82525050565b60006111b38261146f565b6111bd8185611498565b93506111cd818560208601611511565b6111d681611572565b840191505092915050565b60006111ec8261146f565b6111f681856114a9565b9350611206818560208601611511565b61120f81611572565b840191505092915050565b60006080830160008301516112326000860182611284565b506020830151848203602086015261124a82826111a8565b9150506040830151848203604086015261126482826111a8565b91505060608301516112796060860182611284565b508091505092915050565b61128d816114f8565b82525050565b61129c816114f8565b82525050565b6112b36112ae826114f8565b611568565b82525050565b60006112c582866112a2565b6020820191506112d5828561110d565b6014820191506112e582846112a2565b602082019150819050949350505050565b600060208201905081810360008301526113108184611124565b905092915050565b600060208201905061132d6000830184611293565b92915050565b60006080820190506113486000830187611293565b818103602083015261135a81866111e1565b9050818103604083015261136e81856111e1565b905061137d6060830184611293565b95945050505050565b600060608201905061139b6000830186611293565b81810360208301526113ad81856111e1565b90506113bc6040830184611293565b949350505050565b60006060820190506113d96000830186611293565b6113e66020830185611293565b6113f36040830184611199565b949350505050565b6000604051905081810181811067ffffffffffffffff8211171561141e57600080fd5b8060405250919050565b600067ffffffffffffffff82111561143f57600080fd5b601f19601f8301169050602081019050919050565b6000819050602082019050919050565b600081519050919050565b600081519050919050565b6000602082019050919050565b600082825260208201905092915050565b600082825260208201905092915050565b600082825260208201905092915050565b60006114c5826114d8565b9050919050565b60008115159050919050565b600073ffffffffffffffffffffffffffffffffffffffff82169050919050565b6000819050919050565b82818337600083830152505050565b60005b8381101561152f578082015181840152602081019050611514565b8381111561153e576000848401525b50505050565b600061154f82611556565b9050919050565b600061156182611583565b9050919050565b6000819050919050565b6000601f19601f8301169050919050565b60008160601b9050919050565b611599816114ba565b81146115a457600080fd5b50565b6115b0816114f8565b81146115bb57600080fd5b5056fea365627a7a72315820a374b47f61c80e6d66fbaeb583afde24d41d687f81dcdc53978ae87a8722d2616c6578706572696d656e74616cf564736f6c63430005100040",
  "source": "pragma solidity >=0.4.20;\npragma experimental ABIEncoderV2;\n\ncontract Advertise {\n\n    struct Advertisement {\n        uint id;\n        string source;\n        string content;\n        uint categoryId;\n    }\n\n    // Category of Advertisement\n    struct Category {\n        uint id;\n        string name;\n        uint totalAds;\n    }\n\n    // User Activity for a category\n    struct CategoryActivity {\n        uint categoryId;\n        uint viewCount;\n        bool blockAds;\n    }\n\n\n    // activity event\n    event activityEvent (\n        address indexed _source,\n        uint indexed _categoryId\n    );\n\n    mapping(address =>  CategoryActivity[]) public categoryActivities;\n    mapping(address =>  bool) private isValidClient;\n    mapping(uint =>  Advertisement) public advertisements;\n    mapping(uint =>  Category) public categories;\n    mapping(uint =>  uint[]) public categoryAdvertisementIds;\n    \n    uint public advertisementsCount;\n    uint public categoriesCount;\n\n\n    constructor () public {\n        addCategory(\"Sports\");\n        addCategory(\"Grocery\");\n        addCategory(\"Movies\");\n        addCategory(\"Technology\");\n        addCategory(\"Cars\");\n        addCategory(\"Retail\");\n        addCategory(\"Finance\");\n        addCategory(\"Travel\");\n        addCategory(\"Food\");\n        addCategory(\"Music\");\n    }\n\n    // private method to add new ad category\n      function addCategory (string memory _name) private {\n        categoriesCount ++;\n        categories[categoriesCount] = Category(categoriesCount, _name, 0);\n    }\n\n    // Adds new advertisement\n    function addAdvertisement (string memory _source, string memory _content, uint _categoryId) public {\n        advertisementsCount ++;\n        advertisements[advertisementsCount] = Advertisement(advertisementsCount, _source, _content, _categoryId);\n        categories[_categoryId].totalAds ++;\n        categoryAdvertisementIds[_categoryId].push(advertisementsCount);\n    }\n\n\n    function initializeUser(address _senderAddress) private {\n        for (uint i=0; i< categoriesCount; i++) {\n            categoryActivities[_senderAddress].push(CategoryActivity(i+1, 0, false));\n        }\n        isValidClient[_senderAddress] = true;\n    }\n\n    // client views content of a particular category\n    function viewCategory(uint _categoryId) public {\n        if (!isValidClient[msg.sender]) {\n           initializeUser(msg.sender);\n        }\n\n        categoryActivities[msg.sender][_categoryId-1].viewCount++;\n        emit activityEvent(msg.sender, _categoryId);\n    }\n\n    // returns ads relevent to user\n    function getAds(uint _len) public view returns (Advertisement[] memory) {\n        \n        uint[] memory top = topNCategories(_len, msg.sender);\n        Advertisement[] memory _sources = new Advertisement[](top.length);\n        for (uint i = 0; i<top.length; i++) {\n            uint[] memory _ads = categoryAdvertisementIds[top[i]];\n            // randomly pick one ad from the category\n            Advertisement memory _ad = advertisements[_ads[random(_ads.length, msg.sender)]];\n            _sources[i] = _ad;\n        }\n\n        return _sources;\n    }\n\n    // returns random number between 0 and limit\n    function random(uint _limit, address _senderAddress) private view returns (uint) {\n        uint nonce = 10;\n        uint randomnumber = uint(keccak256(abi.encodePacked(now, _senderAddress, nonce))) % _limit;\n        return randomnumber;\n    }\n\n\n    // returns top _len categories based on viewCount\n    function topNCategories(uint _maxLen, address _senderAddress) view private returns (uint[] memory) {\n\n        uint[] memory sorted = insertion_sort(_senderAddress);\n\n        uint len = 0;\n        for (uint i=0; i < categoriesCount && len < _maxLen; i++) {\n            if (categories[sorted[i]].totalAds > 0) {\n                len ++;\n            }\n        }\n\n        uint[] memory s = new uint[](len);\n        uint k = 0;\n        for (uint i=0; k < _maxLen && i < categoriesCount; i++) {\n            if (categories[sorted[i]].totalAds > 0) {\n                s[k++] = sorted[i];\n            }\n        }\n\n        return s;\n    }\n\n\n    // sort categories based on viewCount\n    function insertion_sort(address _senderAddress) private view returns (uint[] memory){\n        uint[] memory data = new uint[](categoriesCount);\n        for (uint i=0; i < categoriesCount; i++) {\n            data[i] = i+1;\n        }\n         \n        CategoryActivity[] memory _categoryActivities = categoryActivities[_senderAddress];\n        uint length = data.length;\n        for (uint i = 1; i < length; i++) {\n            uint key = _categoryActivities[i].viewCount;\n            uint ele = data[i];\n            uint j = i - 1;\n            while ((int(j) >= 0) && (_categoryActivities[j].viewCount < key)) {\n                data[j + 1] = data[j];\n                j--;\n            }\n            data[j + 1] = ele;\n        }\n\n        return data;\n    }\n}\n",
  "sourcePath": "E:\\Augustine\\Blockchain\\adWorld\\contracts\\Advertise.sol",
  "compiler": {
    "name": "solc",
    "version": "0.5.16+commit.9c3226ce.Emscripten.clang"
  },
  "schemaVersion": "3.4.3",
  "updatedAt": "2021-10-27T08:04:58.796Z",
  "networkType": "ethereum",
  "devdoc": {
    "methods": {}
  },
  "userdoc": {
    "methods": {}
  }
}